:020000040800F2
:10000000B8DD0020DD010008D31901084112010804
:10001000D119010855080108052001080000000059
:100020000000000000000000000000004501000882
:10003000590E01080000000089010008A11C0108F8
:10004000F7010008F7010008F7010008F7010008B0
:10005000F7010008F7010008F7010008F7010008A0
:10006000F7010008F7010008F7010008F701000890
:10007000F7010008F7010008F7010008F701000880
:10008000F7010008F7010008F7010008F701000870
:10009000F7010008F7010008F7010008F701000860
:1000A000F7010008F7010008F7010008F701000850
:1000B000F7010008F7010008F7010008F701000840
:1000C000F7010008F7010008F7010008F701000830
:1000D000F7010008F7010008F7010008F701000820
:1000E000F7010008F7010008F7010008F701000810
:1000F000F7010008F7010008F7010008F701000800
:10010000F70100086D1B0108F7010008F70100085E
:10011000F7010008F70100084D1D0108F70100086C
:10012000F7010008F7010008F7010008F7010008CF
:10013000DFF80CD000F0FAF90048004771280108F8
:10014000B8DD0020224B19680868B0E8F00F80F392
:100150000988BFF36F8F4FF0000080F311884EF0D5
:100160000D0E70470000000006480068006880F32C
:10017000088862B661B6BFF34F8FBFF36F8F00DFA1
:1001800000BF00BF08ED00E0EFF30980BFF36F8F01
:100190000F4B1A6820E9F00F106008B54FF05000BF
:1001A00080F31188BFF34F8FBFF36F8F13F022FBE3
:1001B0004FF0000080F31188BDE808401968086816
:1001C000B0E8F00F80F30988BFF36F8F704700BF6E
:1001D00064000020EFF30580704700000648804768
:1001E00006480047FEE7FEE7FEE7FEE7FEE7FEE71C
:1001F000FEE7FEE7FEE7FEE7B51C01083101000857
:1002000010B5441A0346944209D28418114403E0FD
:1002100011F8013D04F8013D521EF9D210BD40EA2B
:100220000104A40703D009E010C9121F10C3042A57
:10023000FAD203E011F8014B03F8014B521EF9D238
:1002400010BDD2B201E000F8012B491EFBD270476D
:100250000022F6E710B513460A4604461946FFF792
:10026000F0FF204610BD421C10F8011B0029FBD1F5
:10027000801A704730B504460020034600E05B1C3E
:10028000934203D2E05CCD5C401BF8D030BD034606
:1002900011F8012B00F8012B002AF9D118467047FC
:1002A000F0B480EA0102D40F4200B2EB410F02D257
:1002B0000246084611464A0042D0C30DDDB2C1F3E2
:1002C000C752AD1A202D35DAC1F3160141F40002F0
:1002D00004B15242C5F1200602FA06F12A41104447
:1002E000B3EBD05F23D0C4B1012DA0EBC35009DC28
:1002F000F0BC4FF0004202EAC352DBB200F500004E
:1003000000F0E5B8400000F1807000EBC350A0F1B0
:10031000807040EAD170490009E0490841EAC071A3
:10032000A0EBC35000F50000400800EBC350F0BC48
:1003300000F0C4B86142012202EB4101001BF6E764
:10034000F0BC704781F00041AAE780F00040A7E7C9
:1003500080EA010210B502F00043400022D04A00BA
:100360001FD0010E01EB1261C0F35600C2F356021A
:1003700040F4000042F40002A0FB022000047F3998
:10038000140400D0401C50EA124001D44000491E21
:10039000C2B20C0604EBD010401C4008802A02D0E8
:1003A00003E0002010BD20F00100002900DA002049
:1003B000184310BD30B480EA010202F0004530F06D
:1003C000004221F0004013D090B1C30DD40DC2F310
:1003D0001601C0F31600E41A41F4000140F40002D3
:1003E0007D34914201D3641C00E04900002C02DA04
:1003F00030BC002070474FF400000023914201D32D
:10040000891A034340084FEA4101F7D151B19142A3
:1004100002D14FF0004105E002D24FF0010101E0AE
:100420006FF0010103EBC450284430BC00F046B823
:10043000002801DBC0F10040002901DBC1F10041CF
:10044000814201D10120704700207047C10F80EA2E
:10045000E0700844CA079623002100F038B800F085
:10046000004220F00040C10DC0F3160040F400002F
:100470007F2901DA00207047962903DCC1F196013B
:10048000C84001E096398840002AF4D040427047C5
:1004900030B50B46014600202022012409E021FA54
:1004A00002F59D4205D303FA02F5491B04FA02F551
:1004B0002844151EA2F10102F1DC30BD0029A8BFBD
:1004C0007047401C490008BF20F00100704710B47D
:1004D000B0FA80FC00FA0CF050EA010404BF10BC32
:1004E000704749B1CCF1200421FA04F411FA0CF15F
:1004F00018BF012121430843A3EB0C01CB1D4FEA98
:1005000000614FEA102042BF002010BC704700EB92
:10051000C35010440029A4BF10BC7047401C4900C0
:1005200008BF20F0010010BC70470000064C074DCA
:1005300006E0E06840F0010394E8070098471034B3
:10054000AC42F6D3FFF7F8FD98B20108B8B2010843
:1005500070B58C1810F8015B15F0070301D110F885
:10056000013B2A1106D110F8012B03E010F8016BB2
:1005700001F8016B5B1EF9D12B0705D40023521E35
:100580000DD401F8013BFAE710F8013BCB1A921C9D
:1005900003E013F8015B01F8015B521EF9D5A1429B
:1005A000D8D3002070BD000037B544680546014629
:1005B000204608F02BFA00285CD02B680F2B16D0B1
:1005C00004DC0B2B22D00E2B32D050E0282B47D04E
:1005D000B3F5107F05D0112B49D1274B1B6813B9F8
:1005E00048E0264B1B6829462046984742E02046B3
:1005F00002F058FC02AB43F8040D426E1846156831
:1006000002F082FCB5B32046A84733E0204602F052
:1006100049FC02AC0190683002F0A6FB54F8040DCE
:1006200003216C3002F0ADFB204602F06DFC1EE0B1
:10063000EA680CCA0D2A02D0202A06D010E0002B4E
:100640000EDD20460EF088FA05E0002B03DD204683
:100650000EF082FA0EE0022120460EF095FA09E033
:10066000EB6823B94FF48071204608F0ABF92846B7
:1006700008F094FC03B030BDB4CA0020D0010020C3
:1006800010B5002486B004940B9C03940A9C029439
:10069000099C0194089C009400F002F806B010BD7B
:1006A0002DE9F041984605460E46174686B003F000
:1006B00073FC1B4B109C02930D9B4C3401930C9BC1
:1006C000039400933A4643463146284608F0A2FB7D
:1006D0008046F8B102F0E6FB06AF10220F99114EEA
:1006E000059008F0FFFA57F804ED351D0EF13404BB
:1006F0000FCD0FC40FCD0FC495E80F0084E80F0095
:10070000736B3846CEF8643002F0FEFB736B4046E4
:100710005B68984705F0FCFE404606B0BDE8F081F6
:10072000A9050008D00100202DE9F0418B4B82681B
:1007300088B053F8225043680446052B0ED006DCDF
:10074000002B40F00781006809F03CFC02E1062B19
:1007500000F08980122B00F0AA80FBE0EE69002EE9
:1007600051D0AB68103003936B6802932B680096EE
:1007700001930FC806F0BCFB002655F8260005F0D3
:1007800088F8EB69A26921696069D21A194430447A
:1007900003F0DAF8EB69A2692169E069D21A194419
:1007A000801B03F0D1F8EB69E26961692069D21A14
:1007B0001944304403F0AAF9EB69E2696169A06960
:1007C000D21A801B1944013603F0A0F9022ED4D1AD
:1007D000A86805F05EF8E96920696669E36942186E
:1007E0005B1A013A3144023003F0E2F9E969A26987
:1007F0006669E369501A5B1A023A3144013003F02A
:10080000D7F9EE690FE055F8260005F042F804F13B
:1008100010000FC89B1B921B31443044013603F07B
:100820002DF9022EEFD12F696169E369A269206970
:100830000197EF680B44921B304400975B10023124
:1008400002F0CEFF206904F11401AC690EC90194D5
:1008500019446C6949100094023B921B01313044E9
:1008600002F0BEFF76E0006802F01CFB04902068F6
:1008700009F0DEFF049B30B1A26852B91A6F003252
:1008800018BF012206E05A6F002A0CBF0022022284
:1008900000E0002203EB8203DD6E04A802F034FBCB
:1008A00000231A462168284602F096FD52E00068AF
:1008B00002F0F8FAD0F8688008AE46F8100DB8F1EA
:1008C000000F44D0A368B0F95C7023B1032B0CBFB8
:1008D0000223002300E0012300EB83031C6C406D26
:1008E00004F0EEFF204604F0D4FF06A803F020FA3F
:1008F000A98BBDF81C30BDF818205B1AADF81C3070
:10090000BDF81A300A440233ADF81A30BDF81E3073
:10091000ADF81820023BADF81E30049B06A8B3F9D1
:100920006020B3F95E1004F056FB304602F0ECFA9A
:10093000022005F04FF8404602F0B4FA08AC44F843
:100940000C0D3A4606A902F04DFE204600E0304666
:1009500002F0DAFA002008B0BDE8F0817CA80108B6
:10096000F7B50D461746044620B303F015FB2046A5
:1009700002F098FA0090806EB0B102F093FA064649
:100980000190FFF770FC0446B8420B4BA8BF07F17B
:10099000FF341B68224631462846984701A802F0DA
:1009A000B3FA00232B5500E02870684602F0ACFA39
:1009B00005F0AEFD03B0F0BD6802002013B504469B
:1009C00078B103F0E9FA204602F06CFA02AB43F882
:1009D000040D448E1846C4F3002402F095FA05F085
:1009E00097FD204602B010BD73B50D46044628B3EE
:1009F00003F0D2FA204602F055FA866E009068465F
:100A0000019602F081FA294601A806F03DFE002871
:100A10000CBF012500250ED0019B9E4208D0204628
:100A200002F040FA019B00908366684602F06CFA7F
:100A3000204608F096FF05F06BFD00E001252846F2
:100A400002B070BD2DE9F047446886B005462046E7
:100A500002F028FAC76D0090D0F888A0D0F8806026
:100A6000D0F86880B0F87C9007B13F68684602F023
:100A70004BFABAF1000F09D0DAF80430284698474B
:100A8000002840F01A81DAF800A0F2E72B68172B53
:100A900000F0898018DC0F2B43D006DC0B2B00F014
:100AA000FA800D2B00F0BD80FFE0112B1BD0142B22
:100AB00040F0FB8001A9204600F0B5FCEA6802ABDB
:100AC00003CB10605160F8E0262B6FD005DC1E2BA5
:100AD0007AD0202B00F0B380E7E02A2B13D0B3F5B7
:100AE000107F24D0E1E02046EE6802F0DBF90190AF
:100AF0003389012B02BFB0F87C3043F48073A0F837
:100B00007C3001A8CFE0204602F0CCF9EB680090E1
:100B100013B1C0F8843002E0D0F88430EB6068464E
:100B20003EE0002F00F0C1802046B847BDE02046DF
:100B3000D5F80C8002F0B6F906AF47F8140DB0F8FE
:100B40007C60384602F0E0F9EB68002B00F0B580DD
:100B500098F80830CBB1330702D4204609F08AF95F
:100B6000204608F017F906F48873B3F5887F40F043
:100B7000A48006F080039BB2002B40F09E800522EB
:100B80004146204609F016F997E0204602F08AF91E
:100B9000B0F87C30019023F48073A0F87C303846A4
:100BA00002F0B2F989E0C5F80C8086E0EB68022B10
:100BB00040F08380049306A9272341F8143DA868D8
:100BC00003940AF037F878E0EF68012F24D130461B
:100BD00008F034FF58B1304609F04CF9304608F0BF
:100BE000DDFD88B13946304607F0B5FF0CE04046E0
:100BF00009F094F90646204602F054F90090C0F836
:100C00008060684602F080F90121204600F024FB54
:100C1000002E52D1EE6050E05146204600F01CFB01
:100C20004BE019F0080F40D1EB68DB68002B3CD09B
:100C30001B7A002B39D0204609F01CF935E0EE680C
:100C40009EB32146706809F0D9FD80B1012120468C
:100C50000EF064FC2146706809F0BFFD28B3204601
:100C600002F020F906AB43F8140D72680FE051460C
:100C700020460EF053FC2146306809F0AEFDA0B1CD
:100C8000204602F00FF906AB326843F8140DC0F8A5
:100C90008020184607E0204602F004F900907030EA
:100CA00002F062F8684602F02FF92946204607F064
:100CB000ADFE10B1284608F071F906B0BDE8F08726
:100CC00010B5002488B006940F9C05940E9C0494E3
:100CD0000D9C03940C9C02940B9C01940A9C009420
:100CE00000F002F808B010BD2DE9F0470E46984616
:100CF000054617468AB0DDF84C9003F04DF93A4BA3
:100D0000189C029349F480530193129B6034009322
:100D10003146039443463A46284608F07BF8064697
:100D200000285BD002F0BEF8DFF8C4A00DF128085F
:100D3000554630221599049007F0D4FF0FCD58F88E
:100D4000187D07F134040FC40FCD0FC495E80300DC
:100D5000179B84E803007B66149B0024A7F87C3073
:100D6000DAF82830C7F88040FB65FC66C7F8884091
:100D7000404602F0C9F805A9304600F054FB039440
:100D80001A4CBDF91A10029441F28274BDF9180090
:100D9000BDF91E30BDF91C205B1A121A01320194F4
:100DA0000133009608F036F8DAF8283004465B681C
:100DB00030469847304602F075F804908466404605
:100DC00002F0A2F842F2040309EA030313B9304621
:100DD00008F0B2F91699304600F0ACFA05F098FB2D
:100DE00030460AB0BDE8F087450A00085B170008E6
:100DF000080200202DE9F041044690B0006800F0A0
:100E0000B5F9A54B666803F12C05002818BF1D46EF
:100E10001C2E00F2A281DFE816F08D01A001A001D6
:100E2000A001A0012701A001A001A001A001A00133
:100E30002700A001A0017A01A001A001A0014101A9
:100E4000A001A00123001D001F002100A001A0019E
:100E5000A0012500EE6985E12E6A83E16E6A81E1D9
:100E6000AE6A7FE16E697DE120681C2308930790DC
:100E700002F018F8036D059007A89847064605A8E4
:100E800002F042F8012E11DDAB6802936B6801930A
:100E90002B68009362693346A169206905F06EFFF3
:100EA0002769A3693744C6EB03082CE0286804F0DF
:100EB000F0FC2169EA6960690A44013A02F044FDE4
:100EC000A269E9696069511A013102F03DFD676963
:100ED00020690137394602F08BFD3946A06902F0DE
:100EE00087FD686804F0D5FC20693946013002F0BE
:100EF0007FFDA0693946013802F07AFD2769A369B0
:100F00000237A3F10208286804F0C3FC42463946C0
:100F1000606902F019FD686804F0BBFC6069424634
:100F20003946013002F010FD6B6A022B0ADDA86819
:100F300004F0AFFC61696B6A42460B44013B02312D
:100F400038461CE02A6A96421BDA6769012E07F1CF
:100F50000208236940F303813744F0181A44013A28
:100F60003B46414602F024FEA369E869012EA3EB4B
:100F70000000CCBF9A1B9A1E41463B46013002F04E
:100F800017FE6369E769012ECCBFF6189E1C013F6E
:100F9000286804F07EFC3A463146206902F0B6FD2E
:100FA0003A463146A06902F0B1FDE769686804F08D
:100FB00070FC2069023F3A463146013002F0A6FD3E
:100FC000A0693A463146013802F0A0FDEB69022BD8
:100FD00002DC2B6A022B1FDDAB6AE769022BA868D3
:100FE000CCBFFF1A023F04F054FCEA69022A07DD75
:100FF00020693B460244013A3146023002F0D8FDF6
:101000002B6A022B08DDA269E8693B46101A3146BB
:10101000023A013002F0CCFD286804F03AFCA269E3
:101020002169E06902F090FC686804F032FCA26972
:101030002169E069013A0131013802F085FCAE6AAC
:10104000022E40F38A80A2692769E469A868A2F1A8
:101050000208023704F01DFCA11BA31E4246013109
:10106000384602F0A5FD78E0B4F91000B4F9141088
:10107000B4F91820B4F91C302C69ADF81C000194A7
:10108000EC68ADF81E100094ADF82020ADF82230C9
:1010900002F0A6FB61E000BF240300206369298BF6
:1010A000ADF81E30A36922695B1AADF82030E36900
:1010B0000A442068ADF82230ADF81C2001F0F2FEA1
:1010C000036F0590FBB1022004F084FC059AB2F88E
:1010D0007C30C3F3C0030E3302EB8303986804F043
:1010E000D8FB059B586B04F0EBFB059B186F01F0D8
:1010F000D9FE059B07A9B3F95A20069002F072FAAF
:1011000006A801F001FF05A801F0FEFE25E0236915
:10111000A868ADF81C306369ADF81E30A369ADF85E
:101120002030E369ADF8223004F0B3FB07A802F0E9
:1011300069FD12E0206801F0B5FEB0F85A2010AB4E
:1011400043F82C0D42F00C02A0F85A20184601F08A
:10115000DBFE206808F036FF04E0002602E0981C61
:101160004746FBE6304610B0BDE8F08113B50446B3
:1011700080B102F011FF204601F094FE02AB43F86B
:10118000040DB0F87C401846C4F3C00401F0BCFE66
:1011900005F0BEF9204602B010BD30B5044689B056
:1011A000006801F07FFE256A0090B0F87C40006F77
:1011B000C4F3C00408B101F075FE2A46019052F84C
:1011C0000C0F06AB51682A8903C3AB880132013B7F
:1011D000ADF80830B5F90E30ADF80C20ADF80A3096
:1011E0000133ADF81A30BDF81C306A8A013BADF806
:1011F0000E20ADF81C30BDF81820009B0132586B52
:10120000ADF8182004F05CFB009B06A9B3F95A3036
:1012100004AA019805F0BAF9009B04F10C0203EB53
:101220008203986806F0CCFF009B0E3403EB840425
:10123000A06806F0FDFF04AB06AA02A9019807F01A
:10124000BBFC684601F060FE019B13B101A801F0F0
:101250005BFE002009B030BD38B50D46044648B1EC
:1012600002F09AFE294620460EF058F9BDE83840B3
:1012700005F04EB938BD37B504460D4602F08CFE78
:1012800064B1204601F00EFE02AB43F8040D056682
:10129000184601F039FE204608F063FB05F038F9E6
:1012A00003B030BD2DE9F043044685B000283AD0A4
:1012B00002F072FE204601F0F5FDC36D04AD9E689C
:1012C00045F8040D00F025F90746284601F01CFEFC
:1012D0003368012120469847336880460321204621
:1012E00098470021336881462046984706462046A5
:1012F00001F0D8FD0D4B0390C365284601F004FEB4
:10130000204600F0F3F94B46424639462046009607
:1013100000F077F906492046FFF7ADFF204608F0B8
:1013200020FB05F0F5F805B0BDE8F0830C77010867
:101330009B11000837B50D460446E8B102F02CFEBB
:10134000204601F0AFFD036F00906846019301F065
:10135000DBFD294601A806F097F958B1204601F0B7
:10136000A1FD019B00900367684601F0CDFD20467A
:1013700008F0F7FA05F0CCF803B030BD2DE9F743DB
:101380000D46044600284BD002F006FE204601F030
:1013900089FD0090438E15B143F0200701E023F052
:1013A00020079F4237D04786204600F09FF9009ED5
:1013B000F56905B3284601F075FDB6F90280B0F96C
:1013C00002300190D0F8209001A8C8EB030801F08A
:1013D0009BFDB6F9563098450BD1B36E9D4208D0AF
:1013E000738E2846990602D508F04CFE01E008F0FD
:1013F000E3F94D46DDE7009BB3F87C305A0607D58C
:10140000BB06204602D508F03DFE01E008F0D4F905
:10141000204608F0A6FA684601F076FD05F078F857
:1014200003B0BDE8F0832DE9F04F87B0064689464A
:1014300001F038FDC26D03909468012122683046A6
:101440009047226803218046304690472268022157
:1014500083463046904722680021824630469047B6
:101460000090039809F056F80546039809F059F8DA
:1014700007460398448E04F02004A4B20CB1B0F9DE
:10148000584000F046F803990246C86E18B1019220
:1014900007F089FF019ABDF80010A9F8002092B268
:1014A0001444013D0C44A9F80E10CBEB050B013F91
:1014B00001391144A9F802000FFA88F80FFA8BFBE2
:1014C0002044CAEB070AA9F80600A9F81210A9F8E7
:1014D0000480A9F808B0A9F80AA0A9F80C80A9F816
:1014E00010B003A801F010FDB9F90C20B9F91010E3
:1014F000049206AA42F8041D304604A900F03CF804
:10150000049AA9F80C20059AA9F8102007B0BDE8A4
:10151000F08F08B5438E024603F020039BB23BB127
:10152000B0F9540028B9506B02F094FC023008BDA9
:10153000184608BD70B58AB006460C4601F0B2FCEC
:101540000AABC26D43F8280D1846956801F0DCFC23
:101550000196032C0BD8DFE804F0020406081823D8
:1015600004E0162302E0152300E0172302936B68C2
:1015700001A898470AB070BD2DE9F74381460D4692
:10158000164601F08FFC0346DA6D02A8976840F812
:10159000083DB3F90040B3F9028001F0B5FC3B68A7
:1015A0000021484698470746484607F079FE81469D
:1015B00020B3484601F076FCB0F902300190C8EB48
:1015C00003039F4213D1836A1B0608D5B0F900308C
:1015D00032681B1B93420ADC013B336007E0B0F921
:1015E00004302A681B1B9342A4BF01332B6001A85F
:1015F00001F08AFC484607F07FFED8E703B0BDE85B
:10160000F0832DE9F04F85B093460C4605469A4687
:1016100001F048FCC36D04AF9E6847F8080DFFF762
:1016200078FF8146384601F06FFC33680121284677
:101630009847336803210746284698473368804611
:10164000002128469847A145034606D15F4504D1AD
:10165000D04502D10E9A904245D02846019307F01A
:101660001FFE0026C4EB09040546B146019B0E9AF5
:10167000CBEB07079B1A0193C8EB0A089DB32846DA
:1016800001F010FC836A039003F42073802B02D0D6
:10169000B3F5007F1FD124B122462146284608F029
:1016A00061FA039B9B6A1A0608D504FB198109F1AC
:1016B000010A019A284608F0FDF9D146039B9B6A6E
:1016C0009B0508D504FB067106F1010A019A28461C
:1016D00008F0F0F9564603A801F016FC284607F07A
:1016E0000BFE0546CAE705B0BDE8F08F70B586B0C1
:1016F000064601F0D7FB06AB846E43F8180DC56EA5
:10170000184601F001FC04B92DB301A93046FFF7DA
:101710008AFEACB1BDF90A20BDF90810204608F0D8
:1017200099F9BDF90E30BDF90A20BDF908109A1AD1
:10173000BDF90C300132591A0131204608F066FC1F
:101740004DB1BDF90A20BDF90630BDF90810D21A15
:10175000284608F07FF906B070BD2DE9F0434568D2
:1017600087B00446284607F0D4FD814601F09AFB75
:10177000034606A840F8143D5F6E9E6CD3F8808047
:1017800001F0C2FB2368172B52D009DC0F2B14D0B9
:1017900002DC0E2B33D045E0143B012B48D941E04D
:1017A0001F2B27D002DC1E2B19D03BE0222B37D079
:1017B000312B37D10023E3603DE06FF070439E4250
:1017C00004D0304606F0FCFC01F006FD9FB394E81F
:1017D0000F0002AE86E80F000395304626E0E3686E
:1017E0004BB3B8F1000F17D0454515D0404608F06F
:1017F00041FB20E02146484607F008F91BE0E3687A
:101800005A68002A0EDD1B68092B05D00A2B09D166
:10181000284608F0B5FB0EE0284608F07FFB0AE0FA
:10182000E66008E027B12046C4F80490B84702E01B
:10183000204607F0B3FB07B0BDE8F0832DE9F04187
:10184000D0F80C8086B0044600200E46174604F0FF
:101850002BF80546B8F1000F05D098F8043013B105
:1018600040F0020001E025F0020004F01DF82169BB
:1018700069B101206388228803900290E06801909A
:10188000A06800900C6830463946A0471FE0DFF89A
:101890005080124BD8F8002021461B68527CE0682B
:1018A0009847E18820B9012904BFD8F80030986B27
:1018B000638822880590A0680490A0880291012185
:1018C0000390019100913046394606F03BF82846D6
:1018D00006B0BDE8F04103F0E7BF00BF6C01002097
:1018E0007C01002030B585B004AC002544F8045DCF
:1018F000009400F0D9F805B030BD00002DE9F74F95
:10190000141A5D1A54EA050706468846DDF8309039
:1019100004D103B0BDE8F04F00F09EB985EAE57050
:1019200084EAE471A0EBE570A1EBE47188420ADD82
:1019300021462C460D4611461A460B4631460127D4
:101940004646884600E0002784EAE471A1EBE47192
:10195000A1421FBF984633466D4216461BBF6442E4
:101960001A4601234FF0FF33002DD9F800B0DFF8FD
:1019700034A138D1DAF80030C7B19B7E8BB931463B
:10198000404603B0BDE8F04F06F046B90DF0C8FE82
:1019900030B9DAF8003071195B6E40465B689847E1
:1019A0000135A54205EB0B00F0DD18E0997E91B9F9
:1019B000414630465B6E1B6803B0BDE8F04F1847E8
:1019C0000DF0AEFE30B9DAF8003041465B6EF0192A
:1019D0005B6898470137A7420BEB0700F0DD013841
:1019E000C9F800005BE04FF0020294FBF2F2DAF873
:1019F0000010B8BF5242897EB1B99146B346C6EBDA
:101A00000B039C424BDB99FBF4F0DAF800304044C6
:101A10005B6E5B6817B90146584600E05946984727
:101A20000BF1010BA944EAE7591C08BF04EB0B01B9
:101A3000B34608BFC9F800100092C6EB0B029442EF
:101A4000D9F8000021DB1844C9F8000001930DF01B
:101A500067FE019B98B9009A92FBF4F0404437B9B5
:101A6000DAF800200146526E5846526805E05946A1
:101A7000DAF800200193526E52689047019B009A59
:101A80000BF1010B2A440092D7E75A1C04BF24181B
:101A9000C9F80040D9F80020D31AC9F8003003B0C3
:101AA000BDE8F08F7C0100202DE9F04FDFF8A49114
:101AB00087B0D9F800400746247E8846012C154699
:101AC0001E4604D1109C0094FFF718FFBCE0821A58
:101AD000CB1A52EA030100F0B780002AB6BF0121F9
:101AE00000215242002BBCBF5B4241F002019A42EE
:101AF000BEBF10461A4603464FEA620000EB83233E
:101B000093FBF2F3524A4FEAA31E02EB4E00C3F3DB
:101B10008303B0F92200C3F1100CB8BF41F00401F7
:101B20000CFB00F0BCF1100F1CBF02EB4E02B2F92F
:101B3000242004F1FF3418BF03FB020010230830F7
:101B400090FBF3F04B0748BFC0F58060CA0748BF61
:101B5000C0F500608B0748BFC0F5805000F5806B72
:101B6000584605F085FE00FB04FA584605F084FE51
:101B70006043BAF1000FBBBFCAF500739B120AF5B0
:101B800000735B42A8BF9B120028BBBFC0F500706A
:101B9000801200F500704042A8BF8012002BDBBF0E
:101BA000022293FBF2F1591C03F1FF33D2BF93FBE6
:101BB000F2F349105B100028DFBF022490FBF4F21F
:101BC00000F1FF3090FBF4F0C8BF421C1FFA87FE03
:101BD00089B20EEB0104C4BF52104010ADF80840AA
:101BE00092B21FFA88F480B204EB020C241A9BB262
:101BF000ADF80E40ACB2C3EB0E0EE31AADF81030E8
:101C0000B3B2181A1A4421440023ADF81200ADF8FB
:101C10001410ADF8162004211A4602A8ADF80AC027
:101C2000ADF80CE000F088F8D9F800305B7E1BB905
:101C30004146384600F010F8D9F800305B7E1BB9F9
:101C40003146284600F008F807B0BDE8F08F00BF25
:101C5000D45701087C010020064B1B681A7E012A1C
:101C600002D15B6E5B681847013A022392FBF3F2E4
:101C700000F002B87C0100202DE9F04F40F2C326AD
:101C800056434FF47A7396FBF3F6022392FBF3F379
:101C90001446804602FB0233264F85B001933B6811
:101CA00002445B6E001B1B6801258946984708EBC0
:101CB0000503029308F1FF3301360393B54235DC87
:101CC00004FB04F305FB0533019A9A4218DAB44287
:101CD00015DD029B04EB0901C5EB030A039B50468B
:101CE00003EB050B3B685A465B6E1B6898473B68E5
:101CF0005A465B6EC4EB09011B6850469847013C8D
:101D00003B68C4EB080A5B6E04EB080B09EB0501AA
:101D10001B685A46504698473B68C5EB09015B6E05
:101D20005A461B68504698470135C7E705B0BDE8DD
:101D3000F08F00BF7C0100202DE9F74F054690464B
:101D400043F6FF746D4F009301910023019A934273
:101D50000BDA05EB8302B2F9022001339442A8BFEB
:101D600014469742B8BF1746F0E7654E33685B6983
:101D70006BB1B3F906200099B3F90230521A9742B9
:101D8000A3EB0103A8BF17469C42B8BF1C46009BAB
:101D90001C44009BC3EB04094F45C0F2AB80594A79
:101DA000002313609A46019B03F1FF3B019B9A4578
:101DB0005ADADA4505EB8A03B4BF0AF1010C4FF099
:101DC000000CB3F902304FEA8C0C05EB0C024B45CA
:101DD000B2F9021036D1494502D0534600201AE02C
:101DE00035F92AE035F90C003368C64440445B6E8F
:101DF0008645B8BF02461B68B9BF21467046724689
:101E000021461DE053B1013B05EB8302B2F90220EC
:101E10004A4505D101308345F4DC22E05B46F3E717
:101E2000C9EB0202C9EB010192EA010F35F92A0060
:101E30004FD400EB08022146104633685B6E1B68E6
:101E400098470EE049450CD002DB4B4544DD02E0EB
:101E50004B4506DB01E0494503DC8B4242DC4B4548
:101E600020DD0AF1010AA1E74FF000094846CA4601
:101E7000244B1B689A4513DA234B33F91AB0B9F196
:101E8000000F07D0336808EB0B025B6E21461B681E
:101E90004044984789F001090AF1010A5846E7E7EA
:101EA000013476E74945DCDB35F92AE035F90C20C9
:101EB000C3EB0900CEEB02024243CB1A002ADBBF80
:101EC000581000F1FF3002EB6302121A92FBF3F09C
:101ED000704408F0ADFFC4E78B42E5DD4945C0DC46
:101EE0004B45BEDB184635F90CE00B4635F92A2088
:101EF0000146DDE703B0BDE8F08F00BF01C0FFFF82
:101F00007C010020F4CA0020F8CA002008B50E4B5E
:101F1000186803F0B3FC0D4B186803F0BAFC0120FD
:101F200003F03AFD002003F045FD002003F052FDD0
:101F3000002003F0B9FC064B186803F0C1FCBDE8B3
:101F40000840002003F0FABC780100207401002052
:101F50007001002038B50C46054600F0F7F82268FD
:101F6000AB68DA6262681A63A2685A63520707D5DF
:101F70001A68596883E806009A68D968DA60996037
:101F8000A2899A84226912B122EAE2721A6238BDE9
:101F90002DE9F041044688461E46174600F0D6F863
:101FA000A5686822414605F58A70FEF729F92046A2
:101FB000B8472046B04723699B689847A862BDE8A8
:101FC000F081000010B5044600F0C0F8A368114A83
:101FD0000021C3F8AC20104AC3F8BC10C3F8A820F5
:101FE0000E4AC3F8D010C3F8B0200D4AC3F8B82089
:101FF0000C4A10685268C3F8B400C3F8C820DA8CE1
:10200000094822F00302DA84084AC3F8CC00C3F876
:10201000942010BD29F8000845FA0008E9F70008E7
:102020004BF20008C801002061F30008EDF600083B
:1020300010B5044600F08AF8A468104B1021C4F8CB
:10204000EC300F4B2046C4F8F0300E4BC4F8F4309F
:102050000D4BC4F8F8300D4BC4F8A0300C4BC4F84D
:10206000A430D4F8C830C4F80431D4F89430984778
:102070001023A363074B636410BD00BFF1B50008D4
:10208000F1D7000899200008D1210008F1F10008DB
:10209000A9FE000808A80108F7B584680E46E38C7D
:1020A00017469B0743D5D4F8083120469847D4F803
:1020B0000C31314605463A4620469847D4F89830C8
:1020C00006461BB10022012120469847A3692269D8
:1020D0009D42D4BF002301239542B8BF43F00103C2
:1020E00062699642B8BF43F0010313B9E3699E42A7
:1020F0000ADD62682368013A00920022D4F8A870D1
:10210000013B11462046B8472946D4F8AC30324648
:1021100020469847D4F8A03020469847D4F8983005
:1021200005467BB101220021204698470AE0D4F8F9
:10213000AC30204698472046D4F8A03003B0BDE824
:10214000F0401847284603B0F0BD000038B5856858
:1021500004469DB94FF4BE7000F020FE084B4FF4CA
:10216000BE721B68A06029469847A3680222DA84E1
:1021700001221A62034A1C64C3F8102138BD00BF53
:102180006C02002089210008F0B5104C91B06D461A
:10219000264607460FCE0FC596E80F00203485E887
:1021A0000F000FCC08AD0FC594E80F0085E80F00B5
:1021B0007B6B10AA02EB830353F8402C53F8203CAE
:1021C000C7F80821C7F80C3111B0F0BD1858010844
:1021D0002DE9F34184689846E38C0E469B07174629
:1021E0002ED5D4F80831204698470546D4F80C314E
:1021F0003A46314620469847A36922699D42D4BF9A
:10220000002301239542B8BF43F0010362690646EB
:102210009042B8BF43F0010313B9E36998420ADD65
:1022200062682368013A00920022D4F8A870013B4A
:1022300011462046B847D4F8AC303246294601E072
:10224000D4F8AC302046984741462046D4F8A43014
:1022500002B0BDE8F04118474D4B2DE9F04F1A6828
:102260008BB0D169CC69A389834208D8E5898542BE
:1022700005D32568C31A06954FF0FF3613E0A3680F
:10228000002B7CD01D88A84279D35E88864276D305
:102290005B68401B666880B203EB8005069633F9E5
:1022A0002030B5F90260581C099368D091F818B035
:1022B000A17CB2F92A900BFB01F34846B2F92270D7
:1022C000B2F92480079394F810A005F0C9FF079B8A
:1022D000089018462E4D099B2968CA69896B05919B
:1022E000069900FB03100490A37C4146039301234D
:1022F0000293D37E38460193937E524600935B4609
:1023000005F020FB731C1AD049F0020005F0A8FF6D
:102310002A680699D369926B38460592079A02FBA0
:1023200006160496A27C4146039201220292DA7EAE
:1023300001929B7E524600935B4605F003FB2B689F
:10234000DB695A7E1B7E9A4215D9B9F1020F12D071
:1023500089F0040005F084FF0D4B1B68D869437EAB
:10236000827E017EC07E434400FB01810AFB027233
:10237000384605F07BFC9DF8200005F071FF044B0A
:10238000617C1A68538C0B4453840BB0BDE8F08F0A
:102390007C010020044B1B68DB69DB6909B11A7CF6
:1023A0000A60587C704700BF7C01002002230B802C
:1023B0007047C3699A898A4202D8DA898A420FD261
:1023C000986880B1038899420CD342888A4209D325
:1023D000C91A436833F82100C043C0F3C0307047C6
:1023E00001207047002070472DE9F04F384C89B02C
:1023F00023680646B3F92A80DB690146D86900F0F4
:1024000090F8002860D005884768751B07EBC50663
:10241000404696F802A005F023FFD4F800C017F854
:102420003520DCF81CE0DCF838309EF818B0BCF938
:1024300024108146BCF92200059373684FF0010C0B
:102440000493CDF80CA0CDF808C09EF81BC05B46E5
:10245000CDF804C09EF81AE0CDF800E005F072FA5D
:102460002368DA69537E92F818A00793534520D960
:10247000B8F1020F1DD092F81BB001F05DFC804650
:1024800001F024FC03F005FA226817F83550B2F980
:102490002410B2F92200D269079BD27E0BFB0313F2
:1024A00005FB02020BFB0A1105F0E0FB404603F0BE
:1024B000F0F9484605F0D4FE23687178DA69907E19
:1024C0005A8C00FB01225A8409B0BDE8F08F00BF8E
:1024D0007C01002038B50C4B02461B680C46DD69B8
:1024E0000146E86900F01DF860B103884168D21A1E
:1024F00001EBC200AB7E407858431CB111F832208A
:102500005343236038BD00BF7C01002001230B80B2
:10251000704708B5C06900F004F8003018BF01200A
:1025200008BD38B103888B4202D843888B4201D260
:102530008068F6E7704700002DE9F047DFF8648017
:10254000DFF85890DFF858A00025D8F800309D42F9
:1025500017DA7C266E43D9F800707422BC19231D4B
:10256000DAF800101846FDF74BFE0022BA5104F1CC
:102570000C02A26104F10802E06322646064013588
:10258000E3E70CF0D9F8054B1A687C2303FB002025
:10259000034B04301860BDE8F08700BFDCCB00209F
:1025A0007C0100206002002070B50E4E0E4B3046BC
:1025B0000E4D40F80C3F05F055F82C687C235C4329
:1025C000204600F0EBFB0A4B22461B6800213060DE
:1025D00098474FF0FF336B600EF0BCFDBDE87040D4
:1025E0000CF0AAB8DCCB0020EDEC00086002002063
:1025F0006C0200202DE9F04F93B01C9E1C46131A6C
:10260000B3EB4603154682460F464FEA460200F1F9
:102610009F81631A9B1A002BC0F29A8101F0BCFCC7
:10262000B14A1368904693F8691031B993F868205D
:102630000C92042283F8682001E000230C9307F039
:1026400029FF824407F032FF074407F023FF0544C7
:1026500007F02CFFD8F80030044493F869203AB909
:1026600093F8683003FB0AFA5F435D435C435E43C3
:1026700001F0B0FBD8F8003093F8689009FB00F047
:10268000C3B20593059A09F101034FEA52085B10A2
:10269000C8EB0A0AC8EB070703EB0A021F444544CC
:1026A00001921D447A1E4444E318069201986A1E62
:1026B0000292079300F090FAADF84000029800F003
:1026C0008BFAADF84400069800F086FAADF84200A7
:1026D000079800F081FAADF8460010A807F028FF2F
:1026E00058B9814B1B6893F86920002A40F02E816D
:1026F0009DF8302083F8682028E1059B08EB06044C
:10270000A4EB5904E51A022394FBF3F295FBF3F3CF
:1027100004FB042205FB053308920D93019A059BE7
:10272000714F1344013B0B930299019800F0BAFAE0
:10273000029B059A9B1A013309933B685B696BB155
:10274000B3F906200799B3F902308A42A8BF0A46B6
:102750000492069A9342B8BF134602E0079B049383
:10276000069BA84626460393069B4FF0000A234487
:102770000A9399460B9B2B440E93019B03EB040B8E
:10278000554530DD039B994528DB049B994525DCA5
:102790000AFB0AF306FB06320899914201DA013E70
:1027A000F8E708FB08320D99914202DA08F1FF3888
:1027B000F7E73B680E9A5B6EC8EB02021B6849465E
:1027C000C6EB0B009847029B49461A1B099B3244F3
:1027D000581B3B6840445B6E1B6898470AF1010A2E
:1027E00009F1FF39CCE725EAE57AD0460A9BCAEB26
:1027F0000309029B1B1B0E93019B03EB040B444537
:102800001CDD039B4B4514DC049B4B4511DB08FB93
:1028100008F206FB06230899994201DA013EF8E71F
:102820003B680E9A5B6E32441B684946C6EB0B0050
:10283000984708F1010809F1FF39E0E7079B0A9E74
:102840001B1B01360A930A9B9E420FDA3B683146F6
:102850005B6E0B9A1B68019898473B6831465B6E2C
:10286000029A1B68099898470136ECE7A946264664
:1028700098460B9B4FF0000B2B440E93019B234477
:102880000F935D4532DD039B434528DC049B4345A4
:1028900025DB0BFB0BF306FB06320899914201DAAC
:1028A000013EF8E709FB09320D99914202DA09F17C
:1028B000FF39F7E73B680E9A5B6E0F981B68C9EB10
:1028C00002024146801B9847029B41461A1B099B06
:1028D0003244581B3B6848445B6E1B6898470BF1B9
:1028E000010B08F10108CCE77C0100200A9B53444E
:1028F0009B46029BC4EB0308019B03EB0409544570
:102900001CDD039B5B4514DC049B5B4511DB0AFB70
:102910000AF206FB06230899994201DA013EF8E71C
:102920003B6808EB06025B6E59461B68C6EB090064
:1029300098470AF1010A0BF1010BE0E700F00CF8EF
:1029400007F0E6FC00287FF4EFAECAE603F0E0FDF6
:1029500013B0BDE8F08F00BF08B50BF077FA044B59
:10296000044A1B68526A5A6603F108025A6108BD9C
:102970007C010020B8CA00202DE9F04F8BB0149CD8
:102980001546121A01321E46B2EB440388468146B0
:102990004FEA440100F11A81C8EB06035B1A13F1F8
:1029A000010F00F113818B4F01F0F6FA3B6893F8A9
:1029B000692032B993F868200592042283F86820D0
:1029C00001E00023059307F065FD09EB0003009388
:1029D00007F06CFD08EB0003039307F05BFD054473
:1029E00007F064FD3B68304493F8692093F8681061
:1029F00042B9009B4D434B430093039B48434B43D9
:102A00004C430393039B0D44013B04936B1E0193C2
:102A10000B180098029300F0DFF8ADF82000019841
:102A200000F0DAF8ADF82400049800F0D5F8ADF81D
:102A30002200029800F0D0F8ADF8260008A807F0B0
:102A400077FD58B9634B1B6893F86920002A40F062
:102A5000BB809DF8142083F86820B5E0022394FB26
:102A6000F3F304FB0433DFF86C9106939DE8030055
:102A700000F018F9D9F800305B6963B1B3F906A02A
:102A8000029AB3F902B0049B9245A8BF92469B45B7
:102A9000B8BF9B4603E0DDF808A0DDF810B025467E
:102AA000049B00271E19009B03EB040808F1FF3369
:102AB0000793BC4222DD5E451DDB56451BDC07FB50
:102AC00007F205FB05230699994201DA013DF8E773
:102AD000D9F80030079A5B6E31461B68C5EB0800D9
:102AE0009847019B3146181BD9F800302A185B6EB5
:102AF00001301B6898470137013EDAE72546029B03
:102B000000271E1B009B03EB040808F1FF3307930B
:102B1000BC4222DDB3451DDCB2451BDB07FB07F2DF
:102B200005FB05230699994201DA013DF8E7D9F83A
:102B30000030079A5B6E31461B68C5EB080098476A
:102B4000019B3146181BD9F800302A185B6E013002
:102B50001B68984701370136DAE7FFF7FDFED9F821
:102B6000003093F86850009B6F1E93FBF5FA039BAF
:102B700093FBF5F8019B4146DF1B029B97FBF5F7A2
:102B80005E1B96FBF5F694FBF5F50AEB050B7B1B3C
:102B90007A1BA844079358463346751B05F066F820
:102BA0002B460BF1FF324146504605F05FF807987F
:102BB0002B463A464146013005F058F807F0A8FB8D
:102BC00000287FF453AF3DE703F0A2FC0BB0BDE853
:102BD000F08F00BF7C010020044B1B6893F8683025
:102BE0000BB190FBF3F000B2704700BF7C010020F6
:102BF0002DE9F041244C0546A36A0E468BB9234BC0
:102C00001B68236213B905F0F8F82062206A00F00F
:102C1000C5F8A06238B11C481D4B40F82C3F04F0A9
:102C200021FD002700E001271A4B226A1B68DFF80C
:102C30007080AB42B8BF2B46F11A9142A4BFD618A0
:102C400006F1FF369E42B8BF1E46D8F800E0124D8E
:102C5000DEF86420B8BF012792E8030062620F4AE1
:102C600085E803006263A26ACEF864506360A260E4
:102C7000266008F0E5F908F0C5F9D8F800301C3DE9
:102C80005D613846BDE8F081B8CA00207CCD0020E7
:102C9000C1EC0008ACCC0020ECCA002061CF0008D9
:102CA0007C010020044B1B6893F8683091FBF3F122
:102CB00090FBF3F0FFF79CBF7C01002010B50446A9
:102CC00038B101F069F9204608F024F9044603F010
:102CD0001FFC204610BD000073B5054601F05CF9ED
:102CE0002846FFF7EBFF064660B100F0DBF8084B23
:102CF00002AC44F8040D1B682A4600219847204680
:102D000000F002F903F004FC304602B070BD00BFD1
:102D10006C020020024B21F00301186059607047DB
:102D200000C9002010B5044680B101F035F9084B08
:102D30005B6B03EBC4035968486808F099F82046B8
:102D40000CF044FABDE8104003F0E2BB10BD00BF38
:102D5000B0CC002028B1034BDA6B026002B15060A6
:102D6000D8637047B0CC002010B5044601F014F9C8
:102D70002068FFF7D7FF00232360BDE8104003F071
:102D8000C7BB70B506460D460024AC4205DA06EB1B
:102D90008400FFF7E9FF0134F7E770BD2DE9F0414A
:102DA0000746264E03370BF0DBFD27F00307306C98
:102DB0000437F26B874238BF0746144634B154F8E3
:102DC000043C9F4223682CD01C46F7E7F368B26BA3
:102DD00002EB030858F8045CC5EB08052B6833B117
:102DE00020460CF01FFB58F8045CC5EB08052B6867
:102DF0000BBB6B689F421EDC28461C1D0CF0F2FAD0
:102E0000F3686868DB1BF3607369E41B3B44C01B19
:102E10002C44736102D0294608F02AF844F8047C57
:102E200009E00BB161685960616801B10B60A242B1
:102E300001D12368F3632046BDE8F081B0CC0020C7
:102E400008B50BF08DFD0C4A00239918D1F8BC0091
:102E500010B1836800200BE0083B13F1800FF4D120
:102E600008E05A689B68904238BF104613B19B68CF
:102E7000002BF6D10C3808BDB0CC002030B1044B8B
:102E80005B6B03EBC000436858680C38704700BFA9
:102E9000B0CC0020024A936901339361704700BFB0
:102EA000B0CC0020054BDA690132DA615A6B12F8B6
:102EB0003030013302F8303000F03EB8B0CC0020A2
:102EC00010B501F069F8FFF7BBFF0A4BB0F5800FB2
:102ED00098BF1B6A4FF064048DBF90FBF4F0584319
:102EE000B0FBF4F41B6A88BF03FB00F403F010FB93
:102EF000204610BDB0CC0020024A9369013B93618B
:102F0000704700BFB0CC002030B50368094953F8C2
:102F1000085C4C6B14F83530012B03D9CA690AB12F
:102F2000013ACA61013B04F83530002303601846BA
:102F300030BD00BFB0CC0020034B5B6B03EBC00087
:102F400040680830704700BFB0CC0020B0F1004F9F
:102F5000F0B51C6809D1601C186001392D20207063
:102F6000C9B26FF0004001260EE00028BFBF651C0B
:102F70001D602D252570ACBF00240124A1EB0401A8
:102F8000B8BF4042C9B200260AB10139C9B2DFF860
:102F900058E0DFF858C081B14D1E9142EDB205D125
:102FA0001C68671C1F609EF8007027705CF8257015
:102FB00090FBF7F4E4B20A2C03D91B6800221A70C4
:102FC000F0BD07FB140015B90EB10134E4B20A2CB0
:102FD00008BF0D46196808BF01244F1C30341F601C
:102FE0000C702946D7E700BF74CD002000430108CC
:102FF000002807DD0B685A1C0A602B221A700B6828
:1030000000221A70704700002DE9F7430D4606466E
:1030100000F0C2FF284600F09BFE2C4C142303FB5B
:103020000543D3F80480236881463BB92046012339
:103030002360274B40F82C3F04F014FBB9F1000F3C
:103040001DD0484602F0FEFB0746002002F016FCA9
:1030500000F0C2F800221146306800F095FB33689A
:1030600048465A88198802F04BFC142303FB054498
:10307000012366602372384602F0E4FB1CE014274B
:1030800007FB0547786901237E603B7218B102F0A7
:10309000B5F8C7F8149096B1142303FB0544B26841
:1030A000E0682769716801230093411A2B46BA1A18
:1030B000306802F049FB606128460CF027FD03F000
:1030C00027FA404603B0BDE8F08300BFB0C9002036
:1030D0000DEC0008F8B5144606460D4600F05CFFFE
:1030E000204600F035FE154F142348B103FB04744D
:1030F00063689A685968AA1A711A02F0F1FB18E01D
:1031000003FB0473DA68B24202D11B69AB4210D0F0
:10311000142303FB0473586930B15B689A685968DB
:10312000AA1A711A02F090F8142303FB0474E660E3
:103130002561BDE8F84003F0EBB900BFB0C900203D
:10314000024B1B68587C00F003B800BF7C010020D4
:1031500010B5044600F020FF094A142303FB0423A2
:1031600001221A725B6823B921460648FFF74CFF1B
:1031700002E020460CF0CAFCBDE8104003F0C8B9DC
:10318000B0C9002070560108C3B2CAB29A1A92B2EE
:1031900010B514B2002CBCBF524214B204FB04F2AE
:1031A000C0F30723C1F307241B1B9BB21CB2090CFD
:1031B000002CC1EB1041B8BF5B4289B208B2B8BF66
:1031C0001CB204FB04230028BCBF494208B280B2F1
:1031D00000FB003010BD0000002110B5084600F0D3
:1031E0004DFEBDE8104043F6FF7302491A460846FB
:1031F00000F002B801C0FFFF2DE9F34116461F465B
:1032000004460D4600F0C8FE042005F029F8144BD2
:1032100080461B696846DA6C1B6D14441D441644D5
:103220001F44ADF80040ADF80460ADF80250ADF8B1
:10323000067007F07DF938B9404605F011F803F043
:1032400067F902B0BDE8F0813B4632462946204688
:1032500004F00CFD07F05CF80028F5D1ECE700BFA6
:103260006C010020B0F90630B0F90420B0F902106A
:10327000B0F90000FFF7C0BF012BF8B506460D46B8
:1032800017461C4601DD0020F8BD1C20FFF786FD17
:103290000028F8D00DB1056109E0094B53F824105E
:1032A00029B10B680BB11946FBE70B6903610023D9
:1032B000836084618782C66003604360F8BD00BF9D
:1032C00088CD002038B51D46FFF7D6FF044648B12B
:1032D00000F00EF8E3681B6823B9034B16351B6832
:1032E00043F82540204638BD7C010020FFF732BD61
:1032F00030B508B9012030BD8469012CFADC1B4BC4
:103300001A789442A4BF621C1A70194A52F82430E9
:1033100015461BB942F82400184630BD5A680AB158
:103320001346FBE7C2681268D9680968914203DD59
:103330001B68002BF8D1DDE709D1818A012906D16C
:10334000196821B10B46C96809688A42F8DD5A68D4
:1033500012B11060426001E045F8240058609842C4
:1033600008BF00230360002030BD00BF81CD0020D6
:1033700088CD002010B520B10468FFF7B9FF2046C2
:10338000F9E710BD81690A4A52F821309842036872
:1033900004D142F821300BB100225A60426802B1D8
:1033A0001360036803B15A600023036043607047F1
:1033B00088CD002000207047012809DC054B53F818
:1033C000200020B1C3681B681BB10068F9E7704793
:1033D0000020704788CD00202DE9F3410E461746A6
:1033E0009846054670B1FFF75DFD044602A82368C4
:1033F00040F8044D1C68FFF787FD43463A463146C6
:103400002846A04702B0BDE8F08100002DE9F8434E
:1034100005460DF09BFEDFF85880DFF85890054414
:103420000DF094FE2E1A002E1FDD00F097FBD8F849
:1034300000309E42A8BF1E4600F0AEFDD9F8004005
:10344000FFF728FD27461FB103F062F8013FFAE7B6
:1034500030460DF077FE1CB100F09EFD013CFAE70E
:10346000FFF74AFD03F054F8DAE7BDE8F88300BF40
:10347000C4010020E0CB00207FB50D46164619465A
:1034800001AC04AB43F8104D0022FFF75FFD32465C
:103490002946204600F092F804B070BD2DE9F04FA7
:1034A000054685B0002800F0848000F075FD00F02E
:1034B00059FC414C07462368A146B3F9228000F02D
:1034C000ABFC226886B2938C9B1B93842B78002BD9
:1034D00061D047F6FF71284603F044FF014682465B
:1034E000284603F00FFF2268938D03F00303012B9E
:1034F00004D0022B04D190FBF3F302E0034600E07A
:103500000023518C1FFA80FBCB1A9BB219B2518455
:10351000ADF80810B2F924200BF1FF310B44ADF8DF
:103520000C30ADF80A20BBB2013A1A44ADF80E20B7
:10353000514602AA2846019303F044FA2268BDF8D6
:103540000A1028469184514602F0CCFE2A5C05EB15
:10355000000E0A2A019B01D00D2A12D12268918DFA
:1035600001F00301013901298ABF118CA2F82280E0
:1035700051849EF800100A290AD1918C0B4493843F
:1035800006E0BDF80800D9F800308344A3F822B063
:103590009EF8003053B923689A8C16449A8D9E8405
:1035A00022F003029A8502F0B3FF02E00EF101055A
:1035B0008CE705B0BDE8F08F7C01002070B50E46A9
:1035C0001546044600F0E8FC054B20461B685E8467
:1035D0009D84FFF763FFBDE8704002F099BF00BF14
:1035E0007C01002047F6FF73AFF300802DE9F34123
:1035F0000C46174698460646E0B100F0CDFC6CB18B
:10360000204606F02FFD054648B102462146684691
:1036100003F010FF684606F025FD00E0254643460E
:103620003A462146304603F021FA284606F01AFDB4
:1036300002F06EFF02B0BDE8F0812DE9F04F8BB0D3
:103640000C46174603930546002800F0998000F0C9
:10365000A3FCB4F90030B4F904900193C3EB09035F
:103660000133B4F90260B4F906B0029300F07AFBBA
:1036700017F00C0882461DD0039A0299284602F0E2
:1036800051FFB8F1080F05D0B8F10C0F08D0B8F110
:10369000040F0FD10BF1010600FB1A6006B209E01E
:1036A000C6EB0B03013300FB1A30022390FBF3F04F
:1036B000064436B2204606F0D5FC804688B1BDF8F7
:1036C00004300246214606A8ADF81830ADF81A605D
:1036D000ADF81C90ADF81EB003F0ACFE06A806F0E5
:1036E000C1FC1FFA8AF30493013B059307F003071B
:1036F000039A0299284604F00FF8BDF804301FFA27
:1037000086FBADF82030059B01465B448246284687
:10371000ADF82260ADF82490ADF8263003F0F2FD4C
:10372000012F11D0022F04D09FB92388ADF820308B
:103730000FE0B4F90020B4F904309B1A181A0130D4
:1037400090FBF7F0104402E0A3880133181AADF89B
:103750002000284608AA514603F034F92846039A67
:10376000029903F0CFFF049B054403EB0B062B7873
:1037700036B2002BBCD1404606F074FC02F0C8FE05
:103780000BB0BDE8F08F000073B5064615460C4639
:1037900000F002FC114B68461B68DA6C1B6D144488
:1037A0001D443388ADF80040013B2344ADF804309C
:1037B0007388ADF80250013B2B44ADF8063006F09B
:1037C000B7FE18B902F0A4FE02B070BD2A46214629
:1037D0003046FEF733F806F09BFDF2E77C0100204F
:1037E0002DE9F0430446904699460D4687B000F017
:1037F000D3FB164B04A81B68DA6C1B6D14441D44E4
:1038000090449944ADF81040ADF81480ADF81250D2
:10381000ADF8169006F08CFE20B902F079FE07B0E4
:10382000BDE8F0830A4E01270F9B424601930E9B91
:103830002946009320464B460397029609F0BCFAAE
:1038400006F066FD0028EFD1E7E700BF7C0100200D
:10385000697B00082DE9F04F3A4C85B083468A46D3
:1038600015461E4600F098FB21680020D1F84C90C8
:103870000F6D06F05DFE039420B905B0BDE8F04F72
:1038800002F046BEBB194D440093ABEB45030193D8
:10389000039B1B685969A1B1B1F90040B1F904203B
:1038A000B1F90280B1F9069005EB0A01A54201F1D8
:1038B000FF31B4BF601B0020914208DD521B013272
:1038C00006E04FF0FF395246C846084600E052462F
:1038D000824204DC06F01CFD0028D9D1CDE7009B14
:1038E0003BF910106C1C1944531904440293029BB9
:1038F0009C42EFD0019B414533F91460009B1E446C
:1039000001DA46451ADB494501DD4E4516DC7718DC
:1039100002238E4297FBF3F704F1FF3005DB3A46B2
:1039200004F07AF93246394605E00A46394604F091
:1039300073F93A463146204604F06EF901343146B7
:10394000D5E700BF7C0100202DE9F34180461646F3
:103950000C46134F00F020FB3D6868462A6DEB6C67
:1039600008EB02051C441E442BB2ADF80040ADF834
:103970000460ADF80230ADF8063006F0D9FD20B98C
:1039800002F0C6FD02B0BDE8F0813B6832465B6ED6
:1039900029461B682046984706F0BAFCEFE700BFAF
:1039A0007C0100202DE9F84380461E460C46154652
:1039B00000F0F2FA0D4B00201B68DF6CD3F850903A
:1039C00006F0B6FD18B9BDE8F84302F0A1BD4E44BB
:1039D0003D444C4433462A46214607EB0800FDF798
:1039E00081FF06F095FC0028F4D1ECE77C01002073
:1039F00073B504460D46114E00F0CEFA33686846A2
:103A0000DA6C1B6D14441D4423B2ADF80430ADF8DC
:103A100000302BB2ADF80630ADF8023006F088FD6C
:103A200018B902F075FD02B070BD336829465B6EAF
:103A300020465B68984706F06BFCF1E77C010020AC
:103A4000F8B504460D4600F0A7FA0B4B00201B68A2
:103A5000DE6C1F6D06F06CFD18B9BDE8F84002F091
:103A600057BD3D44344429462046FEF7F5F806F09C
:103A70004FFC0028F7D1F0E77C0100202DE9F74347
:103A8000064691461F46884600F086FA1E4B1C6883
:103A9000206DE56C247E2E44013CA4B2331B4D44C2
:103AA00080440744ADF800306319ADF8043068462F
:103AB000C4EB08033C44ADF80230ADF8064006F014
:103AC00037FD20B902F024FD03B0BDE8F08308F112
:103AD000010407F1FF392A464146304604F044F814
:103AE0002A463946304604F03FF84A4621463046D9
:103AF00004F092F84A462146284604F08DF806F074
:103B000007FC0028E7D1DDE77C01002073B50446FF
:103B100016460D4600F040FA0F4B68461A68D36C03
:103B2000126D1C4423B215441644ADF80030ADF8B4
:103B30000430ADF80250ADF8066006F0F9FC18B993
:103B400002F0E6FC02B070BD32462946204604F081
:103B500063F806F0DDFBF2E77C01002010B50024DD
:103B600000F006F808B10124FAE7204610BD000075
:103B70000C4B10B51C681CB1A047041C18BF0124D5
:103B800005F0EEFA084B00281B6818BF01241BB192
:103B90009847002818BF0124044B1B6803B19847BD
:103BA000204610BDACCD0020B0CD0020A8CD002017
:103BB000F7B5044616461F460D4600F0EDF9104BCA
:103BC00068461B68DA6C1B6D14441D4416441F4480
:103BD000ADF80040ADF80460ADF80250ADF80670E5
:103BE00006F0A6FC18B902F093FC03B0F0BD3B460A
:103BF00032462946204604F039F806F089FBF1E701
:103C00007C010020B0F90630B0F90420B0F90210B0
:103C1000B0F90000FFF7CCBF13B50B4630B1C48834
:103C2000818800928268204600F002F802B010BD40
:103C300030B50428039D27D010DC012818D00228B5
:103C400038D16FEA4300694302EB9302525C00F003
:103C5000060022FA00F000F0030030BD10281DD04D
:103C6000202821D0082825D105FB0121C85C30BDC2
:103C7000D843694302EBD302525C00F0070022FAFA
:103C800000F000F0010030BD694302EB5302505CCC
:103C9000DB074CBF00F00F00000930BD4C1005FBE6
:103CA000043332F8130030BD8C1005FB043352F896
:103CB000230030BD002030BD034B082153F8200005
:103CC000C3689B6A184700BF88CD002010B500F07C
:103CD00063F903F0FBFF04F0F7F8044602F018FC68
:103CE000204610BD10B5044600F056F9054B0021E2
:103CF0001B682046DB695B689847044602F008FCB5
:103D0000204610BD7C01002038B504460D4600F069
:103D100043F9064B29461B682046DB695B689847D8
:103D2000044602F0F5FB204638BD00BF7C010020B0
:103D300008B105F06FBA704710B500F02DF903F027
:103D4000CDFF04F0C1F8044602F0E2FB204610BDAE
:103D500001289ABF024B53F820000020704700BF93
:103D6000C8CB002010B500F017F9044B1B68DB69C5
:103D70005C7E02F0CDFB204610BD00BF7C01002020
:103D800070B504460E46154600F006F920462A4650
:103D9000314604F013F8044610B1002333602B6061
:103DA00002F0B6FB204670BD38B505460C4600F063
:103DB000F3F8064BB3F900302B60054BB3F9003034
:103DC0002360BDE8384002F0A3BB00BF76CD0020E1
:103DD00078CD002010B500F0DFF8034B1B681C7E87
:103DE00002F096FB204610BD7C01002010B5044671
:103DF00003F0D4FA01462046BDE8104003F082BA31
:103E000004483523037034238370C3706123037126
:103E1000704700BF6401002010B500F0BDF80C4BE6
:103E20001A68938D03F00C03082B07D00C2B05D0D8
:103E3000042B07D1D3691C7E013C04E0D3691C7EAE
:103E4000640800E0002402F063FB204610BD00BFC0
:103E50007C010020037EC07E58437047024B53F81C
:103E600020301B691868704788CD0020024B53F83A
:103E700020301B695868704788CD002038B505464A
:103E80000C4600F089F8044B1B685D849C8402F0AA
:103E90003FFB002038BD00BF7C01002090B583B0FF
:103EA00000AF344A334B1B6823F001031360324BDD
:103EB00001221A6000BF304B1B68002BFBD12F4B37
:103EC0002F4A1A602D4B1B682E4A934200D0FEE702
:103ED00002F062FC2C4B2E221A700DF039F92B489F
:103EE0000AF0FEFC0CF018FA786003F095FF034628
:103EF000002B0CBF01230023DCB203F0A1FF03461B
:103F0000002B0CBF01230023DBB22343DBB2002BC9
:103F100009D003F08AFF044603F09BFF03461946CD
:103F2000204604F097F90021002001F015FD05F06E
:103F30005FFCFEF701FB164B1B68002B12D00DE057
:103F4000134B1B681B68002B03D0114B1B681B68AD
:103F500098470F4B1B685B680D4A13600C4B1B683E
:103F6000002BEDD10B4B01221A707B6818460C37E1
:103F7000BD4690BD002000E0083002400030024005
:103F8000C2A507F4CDB5E8B574CD002014C9002052
:103F90008CC9002080CD00202DE9F041194C6368C8
:103FA00023B10DF0D1F8A368984204D00DF012F9B6
:103FB0000DF0CAF8A0606368DFF848800133012B78
:103FC00063601CD10AF0B8FB0F4A074653681646D7
:103FD000984214D0002B11DBD8F800507C2404FB4D
:103FE0000355FFF7E7F9D8F80030A86704FB07345A
:103FF000064B221DA06F1A60FFF7BCF97760BDE881
:10400000F08100BFDCCB0020600200207C0100209A
:1040100030B580EAE071094CA1EBE0710022531C3D
:104020000A2B05D054F823508D4201D81A46F6E7E2
:104030000028B8BF931C184630BD00BF00430108DC
:1040400013B5044618B9104B1B681C6ED4B1FFF7AA
:10405000A3FF2046FEF726FF02AB446943F8080D94
:104060001846FEF751FF5CB12046FEF71BFF836840
:1040700002AC44F8040D9B6898472046FEF744FFC5
:1040800002F046FA02B010BD7C010020014A114640
:1040900000F002B801F0FFFF2DE9F0430C4685B0B7
:1040A00015460646002847D0FFF776FF002001F0AE
:1040B000FBFB234B07461B683046D3F86080FEF7B6
:1040C000F1FE03680190986901F0BCFB019A1D4B59
:1040D00081469C42138908BFB2F9044003F1FF33C3
:1040E0002344ADF80C30538908BFB2F90650013BA8
:1040F0002B44ADF80E30ADF80840ADF80A5004F08E
:10410000F9FD01A8FEF700FF02A806F011FA58B960
:10411000484601F097FB404600F0ACF9384601F004
:10412000C3FB02F0F5F907E02A462146304600F0CD
:1041300081FB06F0EDF8EAE705B0BDE8F08300BFCB
:104140007C01002001F0FFFF2DE9FF470C9D074691
:104150009A4688469146FFF71FFF194B1B68587C0B
:10416000184B53F82040E3681B68042B06D02468E2
:10417000002CF8D1FFF720F90446E0B1E3680121F3
:10418000DB6A20469847064690B12469A3689847A1
:10419000013004BF0C4C45F0010502948DE860002D
:1041A00053464A464146384600F0FEF9044600E0D0
:1041B000044602F0ADF9204604B0BDE8F08700BF28
:1041C0007C01002088CD00208CA8010837B504466A
:1041D000F0B1FFF7E1FE0F4B1B681B6E9C4201D153
:1041E00001F022FB2046FEF75DFE0190406908B118
:1041F00002F074F902AD55F8043D1868FFF776F83F
:104200002846FEF781FE2046FEF78CFD02F080F97D
:1042100003B030BD7C0100202DE9F04F87B0064689
:10422000039298460291FFF7B7FE544B1A689B46DB
:10423000547C534A20461257012A06DD03F0F2FD52
:104240008146204603F002FE05E003F0D3FD8146DF
:10425000204603F0D5FD044636B305A904A8FFF7B0
:10426000A3FD049A059B9144B6F90070B6F902507B
:1042700009F1FF321C44B6F90490B6F9063027EA7A
:10428000E77725EAE575013C4A45D4BFC7EB02094B
:10429000C7EB09099C42D4BFC5EB0404C5EB03047A
:1042A00009F10109013401E035463746B8F1000F44
:1042B00001D1C4F10008B9F1000F01DD002C03DCCD
:1042C00002F026F9002055E0109B4A46009329464B
:1042D00043463846FFF738FF064630B90398029B3D
:1042E000984702F015F9012044E000F07DF884427F
:1042F000804606D0DBF80030986C10B1322106F011
:10430000C4FC304600F0B6F8A2464FF00009D04594
:1043100003DD5146304600F091F8B9F1000F08D0A6
:10432000304605EB0902394600F0CEF83046FFF77B
:1043300087FE029B03989847124B1B680BB1FF2026
:1043400098473046C144FFF7A1FE4C45C8EB0A0A26
:10435000DDDC3046FFF73AFF002000F08BF84445E3
:10436000AED0DBF80030986C0028A9D0332106F0DD
:104370008CFCA5E707B0BDE8F08F00BF7C010020F2
:1043800083CD002028CC002037B5044698B1FFF734
:1043900003FE2046FEF786FD036802AD1B6945F863
:1043A000040D9B68984704F064F904462846FEF71C
:1043B000ABFD02F0ADF8204603B030BD13B50446A6
:1043C00070B1FFF7E9FD2046FEF76CFD02AB43F844
:1043D000040D00F118041846FEF796FD02F098F857
:1043E000204602B010BD000013B50446FFF7D4FD0F
:1043F0001CB90A4B1B681C6E54B12046FEF752FDD7
:1044000002AB43F8040DB0F90A401846FEF77CFDF4
:1044100002F07EF8204602B010BD00BF7C010020F3
:1044200038B505460524284606F094FF10B9013C2E
:10443000F9D138BDBDE8384000F078B837B50D4641
:10444000044618B90A4B1B681C6E7CB1FFF7A4FD2B
:104450002046FEF727FDB0F90A300190AB42C8BFF5
:10446000458101A8FEF750FD02F052F803B030BDBF
:104470007C010020F7B50646FFF78EFD114B1A6848
:104480001C46176E16B901F0CFF916E00FB101F016
:10449000CBF904F073FD3046FEF704FD236802AD4E
:1044A00045F8040D1E660068FEF722FF2846FEF759
:1044B0002BFD03F0A1FF03F0ADFE02F029F8384612
:1044C00003B0F0BD7C01002073B50D4614460646CE
:1044D00018B9154B1B681E6E26B3FFF75DFD3046FD
:1044E000FEF7E0FC24B22DB2C4808580009003F07A
:1044F00091FE009B586980B1FEF7D4FC009B0190AF
:10450000B3F90820B3F90A308280C38012B10BB12D
:104510000580448001A8FEF7F7FC6846FEF7F4FC2E
:1045200001F0F6FF02B070BD7C010020014A114687
:1045300000F002B801F0FFFF7FB50C4615460646B5
:1045400070B3FFF729FD3046FEF7ACFC154B019028
:104550009C42038908BFB0F9044003F1FF332344B0
:10456000ADF80C30438908BFB0F90650013B2B442D
:1045700001A8ADF80840ADF80A50ADF80E30FEF7CE
:10458000C3FC02A805F0D4FF10B901F0C1FF07E099
:104590002A462146304600F031F905F0B9FEF3E72E
:1045A00004B070BD01F0FFFF2DE9F04F464D1C46F1
:1045B0002B6887B081468A4690465B7C0022129920
:1045C0001198109FFEF758FE0395064680B30369C5
:1045D0009B68984704F04DF800FB08F50290FEF741
:1045E0006FFC17F0010704BF042390FBF3F005F103
:1045F000070508BF00EB4000002C4FEAD50544DC5E
:104600001DB11838B0FBF5F000E028466442844242
:10461000A8BF044677B9009723464246514648460C
:1046200001F0DEFE002C834639DC3046FEF75EFEEC
:10463000002046E0002CF8DD05FB04F01830FEF702
:104640003DFB07460028F0D04FF0000B3846FEF740
:1046500029FC0346029A06A840F8043DA3F80490FA
:104660001E60A3F806A0A3F808805C81DD601A61D3
:10467000C3F814B0FEF748FC129BB7603361039B8C
:104680001B685B7CB36138461BE0002FD4D10097D8
:10469000234642465146484601F0A2FE834605FBAA
:1046A00004F01830FEF718FB07460028CED130463C
:1046B000FEF71CFEBBF1000FBAD05846FEF732FBE6
:1046C000E1E707B0BDE8F08F7C0100202DE9F0475D
:1046D000454D464BD5F800E0454E9EF81140D6F8C2
:1046E00000C053F824408CB007460591049223691A
:1046F000BCF1000F12D0E268DEF86010126819B940
:10470000B2FA82F2520905E0072A04D0394A991A0E
:104710004A424A412AB93846049A05990BF0D0FB1F
:104720005FE03846FEF7BEFB03460CA8B3F908402D
:1047300040F8083DB3F90A90D3F80C80FEF7E4FB8B
:1047400008AB06AA05A9204606F092FC069B002BA2
:1047500047DD09AB07AA04A9484606F0ABFC079B56
:10476000002B3EDD3846FFF729FE099B089F03FB1F
:1047700004772B6800EB8707186E28B3DDF81490D8
:10478000049DFEF78FFB0446B4F90630D4F80CA064
:10479000ED1AB4F904300CA8C3EB09094FEA8909F2
:1047A0000AFB0595183540F8044D2C44FEF7ACFB88
:1047B000BCB1CDF80480CDF800A03568079B069AFF
:1047C00039462046A8470CE0587C079BA40001937B
:1047D000069B02940093084B049A1C6805993B467B
:1047E000A0470CB0BDE8F0877C01002088CD0020F8
:1047F00094CD00208CA8010890CD00202DE9F34134
:104800000F4690460646FEF74DFB036802ACDB6898
:1048100044F8040D5B6A162100209847054620469F
:10482000FEF772FB1DB1424639463046A84702B03A
:10483000BDE8F0812DE9F04F9BB008910992054643
:10484000002800F09983FEF72DFB1AAB43F81C0DEE
:1048500044691846FEF758FB2846FFF795FD0828DF
:104860000746A54E02DD002C00F0C9810123002778
:10487000284619930D931897FEF714FB0268B0F9B8
:104880000A3012690E93536832680DF1680949F8CD
:10489000140D0469D0F81480D0F80CA0B0F908B059
:1048A000507C0C93FFF708FA32680B90507CFFF7AE
:1048B000DDFA0A904846FEF727FB082C0A9A0D9B62
:1048C00004D9102C8CBF0423022305E0012C03D152
:1048D00018AB0D940A9301E00D930A970C9B934239
:1048E00000F0DF803368587CFFF7B8FA0F904FEA8A
:1048F0008B00FEF7E3F91090002800F03D83284676
:10490000FFF75CFD0546B8F1000F00F0B9804046A6
:10491000FEF7C8FA05EB0A0311930023DDF8249093
:1049200016900993119B099ACAEB03070E9B9342B9
:1049300040F3A28016980023179383680DF15C085A
:104940005B69099A414698478345054628D11098E6
:10495000FEF7A8FA0F9B082C01930C9B01461490BC
:1049600000935A460B9B384602D906F028FC01E01A
:1049700006F044FC0A9B1AAD059355F8183D0898BB
:104980000493002303930B9B5A4602930123019344
:104990000093494602F0D6FF2846FEF7B5FA62E0DA
:1049A000012C02D04FF0010857E0002D5BD0179882
:1049B000089E00F0070306930A9B2A4605930823E6
:1049C00090FBF3F33B440493012302930193009380
:1049D00049463044CDF80CA003F020FD179B1698F3
:1049E0001D44836817955B69099A414698470546B7
:1049F000DBE71098FEF756FA0F9B014614900193DF
:104A000017980C9B0D9E082C00932A460B9B00FBCD
:104A1000067025D906F0D3FB0A9B17980593149BC3
:104A2000089E0493002303930B9B2A464946029356
:104A300030440123CDF80480CDF8008002F082FFDD
:104A400014A8FEF761FA179B16981D448368179502
:104A50005B69099A17A998470546002DC9D102E05C
:104A600006F0CCFBD8E7099B09F101090133099352
:104A7000119B5344119355E716A8FEF745FA0EE033
:104A80000A9B04900593012301930093CDF80CA099
:104A900002940E9B5A460999089802F053FF109809
:104AA00068E22846FFF78AFC0746B8F1000F00F0DD
:104AB0009A804046FEF7F6F9002516900E9BAB4211
:104AC00040F38D8016980023179383680DF15C08DE
:104AD0005B692A46414698478345064626D12E46BD
:104AE000169806F1010983684A465B694146984772
:104AF000834503D14E46F3E77C0100200A9BC5EBBA
:104B00000608099908F10108059301230497019308
:104B100000932944CDF80CA0029443465A460898C5
:104B200002F010FF0AFB0877354656E0012C099B7E
:104B300004D02B440B934FF001092BE0A04603EB6C
:104B400005092EB3DDF85CE008980EF00703069324
:104B50000A9B3246059308239EFBF3F33B447044C3
:104B6000049349460123CDF80CA0CDF80880CDF878
:104B70000480CDF8008003F051FC179B16981E446A
:104B8000836817965B692A4617A998470646D8E7AF
:104B9000574422E0002EFBD00A9BDDF85CE0059331
:104BA0000D9B089803FB0E733246704404930B99D7
:104BB0000123CDF80CA00294CDF80490CDF800901C
:104BC00002F0C0FE179B16981E44836817965B6917
:104BD0002A46414698470646DCE701356EE716A8A7
:104BE000FEF792F9C8E10A9B049005930123019313
:104BF0000093CDF80CA002940E9B5A463AE028464A
:104C0000FEF750F983461AA8BBF90A3040F810BDE8
:104C1000DBF800200B93DBF80C30D2F810800C93FB
:104C2000BBF90840FEF770F93268D8F80490507C60
:104C3000A14A52F82020166933680A93FFF73CF81E
:104C400008280C9B06D910288CBF4FF0040A4FF09F
:104C5000020A01E04FF0010AB04510D1002205928E
:104C60002246039301230BF11800019300930B9B41
:104C7000049002970999089802F064FE7CE1202FC5
:104C800040F0A2800AFB04F0FEF718F80D9000280F
:104C900000F07281FEF706F918902846FEF702F937
:104CA000169033694FEACA0200F118054FEA840BE7
:104CB0000C9273B3DDF824804FF00109BAF1020FB2
:104CC00005D0BAF1040F02D0BAF1010F06D128467F
:104CD0003769534622461899B8475D440023189A0D
:104CE000059303930C9B0492029322460123CDF873
:104CF0000490CDF800904146089802F023FE0B9BEB
:104D0000099A08F1010713449F4200F02C81B8462C
:104D1000D4E7099F1E460B9B4FF001093B440993C2
:104D2000BAF1020FDDF8608016D0BAF1040F24D07A
:104D3000BAF1010F30D143462A4652F8040B0E93C4
:104D40000A9B0B9298470E9B0B9A03F8010BE11AF2
:104D500018EB010FF1D11EE043462A46A04652F857
:104D6000040B0E930A9B0B9298470E9BB8F1010817
:104D700023F8020B0B9AF2D10DE02A46234652F893
:104D8000040B0E930A9B0B9298470E9B48F8040B5A
:104D9000013B0B9AF3D15D44189B059604930C9B41
:104DA00003960293CDF804900123CDF8009022469B
:104DB0003946089802F0C6FD099B07F101084345F2
:104DC00000F0D1804746ABE7102F40F0D58004FBC0
:104DD0000AF0FDF773FF0D90002800F0CD80FEF77C
:104DE00061F818902846FEF75DF81690336900F1D7
:104DF000180713B1D8F8143053B94FEACA03099D04
:104E00000C930B9B66002B444FF0000B099383E03F
:104E1000B0F908008000FDF751FF0C9018B1FEF7C3
:104E200041F8179001E00C9B1793179B002B00F0A3
:104E30009A8063000A93DDF824B04FEACA030E9308
:104E4000BAF1020FDDF8609006D0BAF1040F05D078
:104E5000BAF1010F11D101E0534600E002233846B8
:104E600022461799D8F81450A84753462246494677
:104E700017983569A8470A9B1F440023059303939D
:104E80000E9B189A029301230492019300932246E9
:104E90005946089802F056FD0B9B099A0BF101093F
:104EA0001344994501D0CB46CAE717A8FEF72CF862
:104EB0000C98FDF737FF56E088CD0020BAF1040FBB
:104EC00041D0BAF1010F11D143463A4632F8020BF4
:104ED0000E930B92C8470A9B98470E9B0B9A03F8B8
:104EE000010BE11A18EB010FF0D13744189BCDF8F4
:104EF00014B004930C9BCDF80CB0029301230193E2
:104F0000009322462946089802F01CFD099B05F1F2
:104F10000108434527D04546BAF1020FDDF860800D
:104F2000CCD143463A46A04632F8020B0E930B9280
:104F3000C8470A9B98470E9BB8F1010823F8020B5B
:104F40000B9AF1D1D1E73A46234632F8020B0E9381
:104F50000B92C8470A9B98470E9B48F8040B013BED
:104F60000B9AF2D1C1E716A8FDF7CEFF18A8FDF7FE
:104F7000CBFF0D98FDF7D6FE1BB0BDE8F08F00BF4C
:104F800010B538B309B30AB3B2F90040B1F9003033
:104F9000A342A8BF2346B2F902400380B1F9023010
:104FA000A342A8BF2346B2F904404380B1F90430BC
:104FB000B2F90620A342B8BF23468380B1F9063078
:104FC0009342B8BF1346C38010BD11460B680360FF
:104FD0004B68436010BD68B1038889B20B440380FD
:104FE000838892B219444388818013444380C388E4
:104FF0001A44C28070470000114A70B513685168A6
:1050000004468B4216460F4D09D1AB4206BF3C33D6
:1050100093E8070013E9070084E807000AE093E833
:10502000070084E8070005F13C02934218BF03F132
:105030000C053560207A003018BF012070BD00BF1C
:105040005802002070CB0020024B09CBC31A5842F3
:105050005841704758020020F0B5274C85B0236DA9
:1050600006462BB92046254B40F8503F02F0FAFA8D
:10507000234A244B01AD1A60E36C96E8070085E8EB
:1050800007000BB1284698471F4EDFF880E03768CD
:1050900073689F4217D0A3420CBF7246A3F10C0263
:1050A0009DF80C10107A88420DD197420BD0A24285
:1050B0000CBF164A0C3A127A8A4204D1A3420CBFA2
:1050C000124B0C3B7360736895E80700734583E8E7
:1050D00007000CBF084B0C339F42736004D1774527
:1050E0000CBF054F0C373760A36C0BB128469847AF
:1050F00000F080FC05B0F0BD70CB0020D5EC0008BE
:10510000E19300083CDE002058020020ACCB0020D8
:1051100010B5FEF741FF0B4A136851688B420BD064
:1051200093E80300084CA34214BF0833503B1360BC
:10513000012404F0D9FC00E0002401F0E9F9204644
:1051400010BD00BF5002002064CB0020F0B4164D0B
:10515000049E2D68059CB5F90870B842B8BF384662
:10516000B5F90C70BA42A8BF3A4690421ADCB5F9BC
:105170000A70B5F90E50B942B8BF3946AB42A8BF64
:105180002B468B420EDBE5682D6835F0040504D113
:1051900005940496F0BC02F021BF2568002DF7D0DD
:1051A0002C46F0E7F0BC70477C010020B0F90220EB
:1051B000B1F906309A4214DCB1F90220B0F9063098
:1051C0009A420EDCB0F90020B1F904309A4208DCB2
:1051D000B0F90400B1F900308342CCBF00200120B7
:1051E000704700207047000008B5034B0146742249
:1051F0001868FBF705F808BD7C01002037B50446A8
:1052000000B3FEF7C9FE20460AF08CFD20460AF0E6
:1052100001FE2046FDF746FE01900068FDF79AFD6D
:10522000019B02ADD868FDF77DFD55F8043DD869B6
:10523000FDF778FD2846FDF767FE2046FDF772FD75
:1052400001F066F903B030BD2DE9F04FA7B0119120
:1052500012920446002800F04782FEF79DFE204689
:10526000FDF720FE119AB0F9043023909A42D0F84D
:1052700000B005D1B0F90630129A9A4200F00482CB
:105280000020FFF7F7F8DBF81830239D0993964BC1
:105290001E901B685A7C13921399099A8A421CBF6C
:1052A0009DF824205A74B5F904300593B5F90630F9
:1052B000059A0693B5F90830C2EB030A0AF1010317
:1052C0000793069AB5F90A309B1A0893013319938C
:1052D0002B8A9B0740F1BB816B69059A0C93119B4C
:1052E0009B1A0293069A129B9B1A0393029B002B14
:1052F00009DCCDF82CA09A44002316934FF0FF331D
:105300000F93049307E0029B1693079B0F930123CF
:10531000049300230B93039B002B0BDC089C039A44
:10532000234613440893002314934FF0FF33109344
:105330000A9306E0039B00241493199B1093012306
:105340000A9324A9584609F0EBF80499239805F02C
:10535000AEFF0D90002800F07A810499239805F0A3
:10536000A6FF0E90002800F06D81239BD86880B9BD
:10537000079B0A9A9B0053430B9A1F93079B1D9010
:1053800003FB042305EB83031593049B9B002093ED
:10539000CCE0FDF787FD079B0A9A9B0053430B9ACD
:1053A0001F93079B229003FB042305EB83031593B4
:1053B000049B029A9B002093059B13442193109B0E
:1053C0009C4200F08C80149B9C4205DB089B9C4215
:1053D000CCBF0023012300E000231A93069B069A0A
:1053E000E3181893039BDDF854909E180B9DE31A65
:1053F00026441D930F9B9D426AD0224629460C9855
:10540000FEF70AFC1B9000285DD0059BEB18179354
:10541000219B5F19169B9D4204DB55451A9BC8BF13
:10542000002300E000231C93BDF99030BB4213DC45
:10543000BDF99230B3420FDCBDF99430BB420BDBB7
:10544000BDF99630B34207DB239B5A4631463846B6
:1054500008F05AFD804601E04FF000081C9B53B154
:10546000029BE91A12D41D9B002B0FDB1A460C98E5
:10547000FEF7D2FB50B9BDF99030179A934205DC84
:10548000BDF99230189A934240F30481BDF99030EF
:10549000BB4216DCBDF99230B34212DCBDF9943048
:1054A000BB420EDBBDF99630B3420ADB0D9B1B9964
:1054B000229A009352F821205B46314638460AF082
:1054C00059F8C9F82080049B1D44209B994491E71A
:1054D0000A9B1F9A1C44159B134415936FE722A83F
:1054E000FDF712FDA9E000BF7C010020149BA34240
:1054F00020DC089BA342B4BF002301231A93069B20
:10550000069A23441893039BDDF854909E18059B3C
:10551000029A0B9D1344264421930F9BAB420BD15F
:105520000A9B1F9A1C44159B13441593109BA3427E
:10553000DCD182E00023E1E7224629460C98FEF701
:105540006BFB03461B0E1B9072D0059BEB18179349
:10555000219B03EB0508169BAB4204DCAA451A9B72
:10556000B8BF002300E000231C93BDF990304345F1
:105570001DDCBDF99230B34219DCBDF994304345CE
:1055800015DBBDF99630B34211DB239B5A463146F9
:10559000404608F0F1FC099A554B074653F8223073
:1055A00040F07F401B695B6898471D9000E0002732
:1055B0001C9B53B1029BE91A11D4039BE21A0ED42F
:1055C0000C98FEF729FB030E09D1BDF99030179A0C
:1055D000934204DCBDF99230189A934270DDBDF914
:1055E0009030434522DCBDF99230B3421EDCBDF958
:1055F000943043451ADBBDF99630B34216DB1D9B50
:10560000FF2243F07F413B4B1B981B689847099A48
:10561000374B53F822301B691B6898470D9B024695
:10562000009331465B46404609F0A4FFC9F820705C
:10563000049B1D44209B99446FE7239B0E99186897
:1056400009F0C1FE239B0D99186809F0BCFE239B4D
:10565000BDF8442007999A80BDF848201E98DA804A
:10566000119A0A44013A1A81129A1999013A0A4484
:105670005A81099B139A93421FBF1F4B9DF84C20E0
:105680001B685A74FEF7F6FE23A8FDF73DFC00F0F8
:105690003FFF29E0BDF99430179A9342FFF6F6AE2A
:1056A000BDF99630189A9342FFF6F0AE0E9B18990A
:1056B0000093D9F820205B46179809F05BFFE5E6D8
:1056C000BDF99430179A934289DBBDF99630189A48
:1056D000934284DB0E9B18990093D9F820205B46F7
:1056E000179809F047FF7AE727B0BDE8F08F00BFB1
:1056F00088CD0020940300207C01002037B50446AB
:1057000000B3FEF749FC2046FDF7CCFB038A02AD4F
:105710009B0745F8040D10D4204609F0A5F928464A
:10572000FDF7F2FB20460AF009FA2046FDF7BAFB26
:10573000038A019043F0020303822846FDF7E4FB4D
:1057400000F0E6FE03B030BD2DE9F74305460088C2
:1057500088461746BDF82860002856D0688800287B
:1057600053D0E86810B1806818B94EE0EA88202A62
:105770004BD106F0010200212548FDF77DFD0446CE
:10578000002842D06B88B5F8009003FB09F94FEA76
:105790008909FEF701FC09F12000FDF79DFA814619
:1057A00018B92046FDF7A2FD2BE0A060FDF77AFBBB
:1057B00003462A88A3F80480013A90446A88DF806F
:1057C000013A02A8174440F8043D1E825D61A3F827
:1057D00008805F811C60FDF797FBEB684BB105F11A
:1057E0000C01484605F0B6FE18B100F091FE00200D
:1057F0000BE0B30705D5484609F036F948460AF0EC
:105800009DF900F085FE4846FFE703B0BDE8F08350
:105810001877010808B5034B74221968FAF7F0FCF1
:1058200008BD00BF7C01002008B5FEF7B5FB02F003
:10583000A7FC02F0E1FD03F05DFABDE8084000F0CE
:1058400067BE000070B504460A4D2B685E7CFEF70B
:10585000A3FB012C09D82046FDF7AEFD28B12B682B
:105860005C74FFF7E1FF044B1C6000F051FE304612
:1058700070BD00BF7C010020D4DD002010B50446BF
:10588000FEF78AFB204602F09BFCBDE8104000F0CA
:105890003FBE10B50446FEF77FFB204602F0C8FC71
:1058A000BDE8104000F034BE10B50446FEF774FBAE
:1058B000204602F0D5FC044600F02AFE204610BD2A
:1058C00038B50446FEF768FB044B1B68DD6904B17C
:1058D000DC6100F01DFE284638BD00BF7C010020C1
:1058E00070B504460D461646FEF756FB324629466D
:1058F000204602F023FD044600F00AFE204670BD5B
:1059000070B504460D461646FEF746FB324629465C
:10591000204602F02BFD044600F0FAFD204670BD43
:1059200038B504460D46FEF737FB2946204602F0FF
:105930004DFD044600F0ECFD204638BD38B5054667
:10594000FEF72AFB034B1B689C7E9D7600F0E0FD72
:10595000204638BD7C01002070B504460D46FEF798
:105960001BFB094B21461C80084B1D80084B1B6804
:105970005A7C084B53F82200C268166A2A46B04780
:10598000BDE8704000F0C4BD76CD002078CD002089
:105990007C01002088CD002038B50546FEF7FCFAD2
:1059A000034B1B681C7E1D7600F0B2FD204638BDFF
:1059B0007C01002038B50546FEF7EEFA044B1B6863
:1059C000B3F92C409D8500F0A3FD204638BD00BFF3
:1059D0007C01002038B50546FEF7DEFA044B1B6853
:1059E000B3F92A405D8500F093FD204638BD00BF25
:1059F0007C010020024B1B6803B11847704700BFB1
:105A0000F0CB0020024B1A6802B91860FFF7F2BF12
:105A100010CB002073B5044678B3194EFEF7BCFADC
:105A20003568AC420CD12046FDF73CFA02AB8268E7
:105A300043F8040D3260184615E06846FDF764FA35
:105A40009DB12846FDF72EFA85680090AC42F4D14E
:105A50002046FDF727FA009B826801909A6001A812
:105A6000FDF752FA6846FDF74FFA20460AF0E0F9D2
:105A70002046FDF757F900F04BFD02B070BD00BFA6
:105A800060CC002037B50D46044690B1FEF784FA8D
:105A90002046FDF707FA02AB828943F8040D2A423B
:105AA000184614BF01240024FDF72EFA00F030FD43
:105AB00000E00124204603B030BD0000002337B5CC
:105AC0000360094B05461C6854B12046FDF7EAF90E
:105AD00002AB026943F8040D2A601846FDF714FA78
